{
  "contractName": "Airdrop",
  "abi": [
    {
      "inputs": [
        {
          "internalType": "address",
          "name": "_token",
          "type": "address"
        }
      ],
      "stateMutability": "nonpayable",
      "type": "constructor"
    },
    {
      "anonymous": false,
      "inputs": [
        {
          "indexed": false,
          "internalType": "address",
          "name": "oldOwner",
          "type": "address"
        },
        {
          "indexed": false,
          "internalType": "address",
          "name": "newOwner",
          "type": "address"
        }
      ],
      "name": "ChangedOwnership",
      "type": "event"
    },
    {
      "anonymous": false,
      "inputs": [
        {
          "indexed": true,
          "internalType": "address",
          "name": "to",
          "type": "address"
        },
        {
          "indexed": false,
          "internalType": "uint256",
          "name": "amount",
          "type": "uint256"
        }
      ],
      "name": "TokenAirdropped",
      "type": "event"
    },
    {
      "anonymous": false,
      "inputs": [
        {
          "indexed": true,
          "internalType": "address",
          "name": "from",
          "type": "address"
        },
        {
          "indexed": true,
          "internalType": "address",
          "name": "to",
          "type": "address"
        },
        {
          "indexed": false,
          "internalType": "uint256",
          "name": "value",
          "type": "uint256"
        }
      ],
      "name": "Transfer",
      "type": "event"
    },
    {
      "anonymous": false,
      "inputs": [
        {
          "indexed": true,
          "internalType": "address",
          "name": "from",
          "type": "address"
        },
        {
          "indexed": true,
          "internalType": "address",
          "name": "to",
          "type": "address"
        },
        {
          "indexed": false,
          "internalType": "uint256",
          "name": "value",
          "type": "uint256"
        }
      ],
      "name": "Withdrawal",
      "type": "event"
    },
    {
      "inputs": [],
      "name": "airdropAmount",
      "outputs": [
        {
          "internalType": "uint256",
          "name": "",
          "type": "uint256"
        }
      ],
      "stateMutability": "view",
      "type": "function",
      "constant": true
    },
    {
      "inputs": [],
      "name": "burnAddress",
      "outputs": [
        {
          "internalType": "address",
          "name": "",
          "type": "address"
        }
      ],
      "stateMutability": "view",
      "type": "function",
      "constant": true
    },
    {
      "inputs": [],
      "name": "fee",
      "outputs": [
        {
          "internalType": "uint256",
          "name": "",
          "type": "uint256"
        }
      ],
      "stateMutability": "view",
      "type": "function",
      "constant": true
    },
    {
      "inputs": [],
      "name": "owner",
      "outputs": [
        {
          "internalType": "address payable",
          "name": "",
          "type": "address"
        }
      ],
      "stateMutability": "view",
      "type": "function",
      "constant": true
    },
    {
      "inputs": [],
      "name": "token",
      "outputs": [
        {
          "internalType": "contract IERC20",
          "name": "",
          "type": "address"
        }
      ],
      "stateMutability": "view",
      "type": "function",
      "constant": true
    },
    {
      "inputs": [],
      "name": "claim",
      "outputs": [],
      "stateMutability": "payable",
      "type": "function",
      "payable": true
    },
    {
      "inputs": [],
      "name": "withdrawEther",
      "outputs": [],
      "stateMutability": "nonpayable",
      "type": "function"
    },
    {
      "inputs": [],
      "name": "withdrawTokens",
      "outputs": [],
      "stateMutability": "nonpayable",
      "type": "function"
    },
    {
      "inputs": [
        {
          "internalType": "uint256",
          "name": "amount",
          "type": "uint256"
        }
      ],
      "name": "burnTokens",
      "outputs": [],
      "stateMutability": "nonpayable",
      "type": "function"
    },
    {
      "inputs": [
        {
          "internalType": "address",
          "name": "_newOwner",
          "type": "address"
        }
      ],
      "name": "changeOwner",
      "outputs": [],
      "stateMutability": "nonpayable",
      "type": "function"
    },
    {
      "inputs": [],
      "name": "eligible",
      "outputs": [
        {
          "internalType": "address[]",
          "name": "",
          "type": "address[]"
        }
      ],
      "stateMutability": "view",
      "type": "function",
      "constant": true
    },
    {
      "inputs": [],
      "name": "emergencyExit",
      "outputs": [],
      "stateMutability": "nonpayable",
      "type": "function"
    },
    {
      "inputs": [],
      "name": "tokenBalance",
      "outputs": [
        {
          "internalType": "uint256",
          "name": "",
          "type": "uint256"
        }
      ],
      "stateMutability": "view",
      "type": "function",
      "constant": true
    },
    {
      "inputs": [],
      "name": "WeiBalance",
      "outputs": [
        {
          "internalType": "uint256",
          "name": "",
          "type": "uint256"
        }
      ],
      "stateMutability": "view",
      "type": "function",
      "constant": true
    }
  ],
  "bytecode": "0x60806040526611c37937e08000600355686c6b935b8bbd40000060045561dead600560006101000a81548173ffffffffffffffffffffffffffffffffffffffff021916908373ffffffffffffffffffffffffffffffffffffffff1602179055503480156200006c57600080fd5b50604051620019da380380620019da833981810160405281019062000092919062000132565b80600160006101000a81548173ffffffffffffffffffffffffffffffffffffffff021916908373ffffffffffffffffffffffffffffffffffffffff16021790555033600260006101000a81548173ffffffffffffffffffffffffffffffffffffffff021916908373ffffffffffffffffffffffffffffffffffffffff16021790555050620001ac565b6000815190506200012c8162000192565b92915050565b6000602082840312156200014557600080fd5b600062000155848285016200011b565b91505092915050565b60006200016b8262000172565b9050919050565b600073ffffffffffffffffffffffffffffffffffffffff82169050919050565b6200019d816200015e565b8114620001a957600080fd5b50565b61181e80620001bc6000396000f3fe6080604052600436106100dd5760003560e01c80639e1a4d191161007f578063d832d92f11610059578063d832d92f1461022f578063ddca3f431461025a578063fc0c546a14610285578063fc2ea8a5146102b0576100dd565b80639e1a4d19146101b0578063a6f9dae1146101db578063bdc03e9114610204576100dd565b806370d5ae05116100bb57806370d5ae051461012c5780637362377b146101575780638d8f2adb1461016e5780638da5cb5b14610185576100dd565b80634e71d92d146100e25780635641ec03146100ec5780636d1b229d14610103575b600080fd5b6100ea6102db565b005b3480156100f857600080fd5b50610101610513565b005b34801561010f57600080fd5b5061012a600480360381019061012591906111a0565b6105c2565b005b34801561013857600080fd5b5061014161076a565b60405161014e91906114b1565b60405180910390f35b34801561016357600080fd5b5061016c610790565b005b34801561017a57600080fd5b50610183610915565b005b34801561019157600080fd5b5061019a610abe565b6040516101a791906114cc565b60405180910390f35b3480156101bc57600080fd5b506101c5610ae4565b6040516101d2919061167f565b60405180910390f35b3480156101e757600080fd5b5061020260048036038101906101fd919061114e565b610b96565b005b34801561021057600080fd5b50610219610d35565b604051610226919061167f565b60405180910390f35b34801561023b57600080fd5b50610244610d3d565b6040516102519190611562565b60405180910390f35b34801561026657600080fd5b5061026f610dcb565b60405161027c919061167f565b60405180910390f35b34801561029157600080fd5b5061029a610dd1565b6040516102a79190611584565b60405180910390f35b3480156102bc57600080fd5b506102c5610df7565b6040516102d2919061167f565b60405180910390f35b600354341015610320576040517f08c379a00000000000000000000000000000000000000000000000000000000081526004016103179061159f565b60405180910390fd5b600454600160009054906101000a900473ffffffffffffffffffffffffffffffffffffffff1673ffffffffffffffffffffffffffffffffffffffff166370a08231306040518263ffffffff1660e01b815260040161037e91906114b1565b60206040518083038186803b15801561039657600080fd5b505afa1580156103aa573d6000803e3d6000fd5b505050506040513d601f19601f820116820180604052508101906103ce91906111c9565b101561040f576040517f08c379a00000000000000000000000000000000000000000000000000000000081526004016104069061163f565b60405180910390fd5b600160009054906101000a900473ffffffffffffffffffffffffffffffffffffffff1673ffffffffffffffffffffffffffffffffffffffff1663a9059cbb336004546040518363ffffffff1660e01b815260040161046e929190611539565b602060405180830381600087803b15801561048857600080fd5b505af115801561049c573d6000803e3d6000fd5b505050506040513d601f19601f820116820180604052508101906104c09190611177565b503373ffffffffffffffffffffffffffffffffffffffff167f9bdcd0cc5503fb9a8dd7311d9617e33108c4b7c8948cc544b16c1fd63c6f475b600454604051610509919061167f565b60405180910390a2565b600260009054906101000a900473ffffffffffffffffffffffffffffffffffffffff1673ffffffffffffffffffffffffffffffffffffffff163373ffffffffffffffffffffffffffffffffffffffff16146105a3576040517f08c379a000000000000000000000000000000000000000000000000000000000815260040161059a9061161f565b60405180910390fd5b6105ab610dfd565b6105b3610ef5565b6000806105c091906110bc565b565b600260009054906101000a900473ffffffffffffffffffffffffffffffffffffffff1673ffffffffffffffffffffffffffffffffffffffff163373ffffffffffffffffffffffffffffffffffffffff1614610652576040517f08c379a00000000000000000000000000000000000000000000000000000000081526004016106499061161f565b60405180910390fd5b60008111610695576040517f08c379a000000000000000000000000000000000000000000000000000000000815260040161068c9061165f565b60405180910390fd5b600160009054906101000a900473ffffffffffffffffffffffffffffffffffffffff1673ffffffffffffffffffffffffffffffffffffffff1663a9059cbb600560009054906101000a900473ffffffffffffffffffffffffffffffffffffffff16836040518363ffffffff1660e01b8152600401610714929190611539565b602060405180830381600087803b15801561072e57600080fd5b505af1158015610742573d6000803e3d6000fd5b505050506040513d601f19601f820116820180604052508101906107669190611177565b5050565b600560009054906101000a900473ffffffffffffffffffffffffffffffffffffffff1681565b600260009054906101000a900473ffffffffffffffffffffffffffffffffffffffff1673ffffffffffffffffffffffffffffffffffffffff163373ffffffffffffffffffffffffffffffffffffffff1614610820576040517f08c379a00000000000000000000000000000000000000000000000000000000081526004016108179061161f565b60405180910390fd5b600560149054906101000a900460ff1615610870576040517f08c379a0000000000000000000000000000000000000000000000000000000008152600401610867906115df565b60405180910390fd5b6001600560146101000a81548160ff021916908315150217905550610893610dfd565b3373ffffffffffffffffffffffffffffffffffffffff163073ffffffffffffffffffffffffffffffffffffffff167f2717ead6b9200dd235aad468c9809ea400fe33ac69b5bfaa6d3e90fc922b6398476040516108f0919061167f565b60405180910390a36000600560146101000a81548160ff021916908315150217905550565b600260009054906101000a900473ffffffffffffffffffffffffffffffffffffffff1673ffffffffffffffffffffffffffffffffffffffff163373ffffffffffffffffffffffffffffffffffffffff16146109a5576040517f08c379a000000000000000000000000000000000000000000000000000000000815260040161099c9061161f565b60405180910390fd5b6109ad610ef5565b3373ffffffffffffffffffffffffffffffffffffffff163073ffffffffffffffffffffffffffffffffffffffff167f2717ead6b9200dd235aad468c9809ea400fe33ac69b5bfaa6d3e90fc922b6398600160009054906101000a900473ffffffffffffffffffffffffffffffffffffffff1673ffffffffffffffffffffffffffffffffffffffff166370a08231306040518263ffffffff1660e01b8152600401610a5791906114b1565b60206040518083038186803b158015610a6f57600080fd5b505afa158015610a83573d6000803e3d6000fd5b505050506040513d601f19601f82011682018060405250810190610aa791906111c9565b604051610ab4919061167f565b60405180910390a3565b600260009054906101000a900473ffffffffffffffffffffffffffffffffffffffff1681565b6000600160009054906101000a900473ffffffffffffffffffffffffffffffffffffffff1673ffffffffffffffffffffffffffffffffffffffff166370a08231306040518263ffffffff1660e01b8152600401610b4191906114b1565b60206040518083038186803b158015610b5957600080fd5b505afa158015610b6d573d6000803e3d6000fd5b505050506040513d601f19601f82011682018060405250810190610b9191906111c9565b905090565b600260009054906101000a900473ffffffffffffffffffffffffffffffffffffffff1673ffffffffffffffffffffffffffffffffffffffff163373ffffffffffffffffffffffffffffffffffffffff1614610c26576040517f08c379a0000000000000000000000000000000000000000000000000000000008152600401610c1d9061161f565b60405180910390fd5b600073ffffffffffffffffffffffffffffffffffffffff16600260009054906101000a900473ffffffffffffffffffffffffffffffffffffffff1673ffffffffffffffffffffffffffffffffffffffff161415610cb8576040517f08c379a0000000000000000000000000000000000000000000000000000000008152600401610caf906115bf565b60405180910390fd5b80600260006101000a81548173ffffffffffffffffffffffffffffffffffffffff021916908373ffffffffffffffffffffffffffffffffffffffff1602179055507fea9edae96fc962306751f84d04bbcd511ef99baa638f6a257077d53576ce5bf03382604051610d2a929190611510565b60405180910390a150565b600047905090565b60606000805480602002602001604051908101604052809291908181526020018280548015610dc157602002820191906000526020600020905b8160009054906101000a900473ffffffffffffffffffffffffffffffffffffffff1673ffffffffffffffffffffffffffffffffffffffff1681526020019060010190808311610d77575b5050505050905090565b60035481565b600160009054906101000a900473ffffffffffffffffffffffffffffffffffffffff1681565b60045481565b600047905060008111610e45576040517f08c379a0000000000000000000000000000000000000000000000000000000008152600401610e3c9061165f565b60405180910390fd5b60003373ffffffffffffffffffffffffffffffffffffffff1682604051610e6b9061149c565b60006040518083038185875af1925050503d8060008114610ea8576040519150601f19603f3d011682016040523d82523d6000602084013e610ead565b606091505b5050905080610ef1576040517f08c379a0000000000000000000000000000000000000000000000000000000008152600401610ee8906115ff565b60405180910390fd5b5050565b6000600160009054906101000a900473ffffffffffffffffffffffffffffffffffffffff1673ffffffffffffffffffffffffffffffffffffffff166370a08231306040518263ffffffff1660e01b8152600401610f5291906114b1565b60206040518083038186803b158015610f6a57600080fd5b505afa158015610f7e573d6000803e3d6000fd5b505050506040513d601f19601f82011682018060405250810190610fa291906111c9565b905060008111610fe7576040517f08c379a0000000000000000000000000000000000000000000000000000000008152600401610fde9061165f565b60405180910390fd5b600160009054906101000a900473ffffffffffffffffffffffffffffffffffffffff1673ffffffffffffffffffffffffffffffffffffffff1663a9059cbb600260009054906101000a900473ffffffffffffffffffffffffffffffffffffffff16836040518363ffffffff1660e01b81526004016110669291906114e7565b602060405180830381600087803b15801561108057600080fd5b505af1158015611094573d6000803e3d6000fd5b505050506040513d601f19601f820116820180604052508101906110b89190611177565b5050565b50805460008255906000526020600020908101906110da91906110dd565b50565b5b808211156110f65760008160009055506001016110de565b5090565b600081359050611109816117a3565b92915050565b60008151905061111e816117ba565b92915050565b600081359050611133816117d1565b92915050565b600081519050611148816117d1565b92915050565b60006020828403121561116057600080fd5b600061116e848285016110fa565b91505092915050565b60006020828403121561118957600080fd5b60006111978482850161110f565b91505092915050565b6000602082840312156111b257600080fd5b60006111c084828501611124565b91505092915050565b6000602082840312156111db57600080fd5b60006111e984828501611139565b91505092915050565b60006111fe8383611228565b60208301905092915050565b61121381611749565b82525050565b61122281611701565b82525050565b611231816116ef565b82525050565b611240816116ef565b82525050565b6000611251826116aa565b61125b81856116c2565b93506112668361169a565b8060005b8381101561129757815161127e88826111f2565b9750611289836116b5565b92505060018101905061126a565b5085935050505092915050565b6112ad8161175b565b82525050565b60006112c0600e836116de565b91507f4e6f7420656e6f756768206665650000000000000000000000000000000000006000830152602082019050919050565b60006113006020836116de565b91507f4f776e65722063616e6e6f7420626520746865206465616420616464726573736000830152602082019050919050565b60006113406017836116de565b91507f5265656e7472616e742063616c6c2064657465637465640000000000000000006000830152602082019050919050565b60006113806014836116de565b91507f4661696c656420746f2073656e642065746865720000000000000000000000006000830152602082019050919050565b60006113c06009836116de565b91507f4e6f74206f776e657200000000000000000000000000000000000000000000006000830152602082019050919050565b60006114006000836116d3565b9150600082019050919050565b600061141a601d836116de565b91507f496e73756666696369656e7420636f6e74726163742062616c616e63650000006000830152602082019050919050565b600061145a601e836116de565b91507f42616c616e6365206d7573742062652067726561746572207468616e203000006000830152602082019050919050565b6114968161173f565b82525050565b60006114a7826113f3565b9150819050919050565b60006020820190506114c66000830184611237565b92915050565b60006020820190506114e16000830184611219565b92915050565b60006040820190506114fc600083018561120a565b611509602083018461148d565b9392505050565b60006040820190506115256000830185611237565b6115326020830184611237565b9392505050565b600060408201905061154e6000830185611237565b61155b602083018461148d565b9392505050565b6000602082019050818103600083015261157c8184611246565b905092915050565b600060208201905061159960008301846112a4565b92915050565b600060208201905081810360008301526115b8816112b3565b9050919050565b600060208201905081810360008301526115d8816112f3565b9050919050565b600060208201905081810360008301526115f881611333565b9050919050565b6000602082019050818103600083015261161881611373565b9050919050565b60006020820190508181036000830152611638816113b3565b9050919050565b600060208201905081810360008301526116588161140d565b9050919050565b600060208201905081810360008301526116788161144d565b9050919050565b6000602082019050611694600083018461148d565b92915050565b6000819050602082019050919050565b600081519050919050565b6000602082019050919050565b600082825260208201905092915050565b600081905092915050565b600082825260208201905092915050565b60006116fa8261171f565b9050919050565b600061170c8261171f565b9050919050565b60008115159050919050565b600073ffffffffffffffffffffffffffffffffffffffff82169050919050565b6000819050919050565b60006117548261177f565b9050919050565b60006117668261176d565b9050919050565b60006117788261171f565b9050919050565b600061178a82611791565b9050919050565b600061179c8261171f565b9050919050565b6117ac816116ef565b81146117b757600080fd5b50565b6117c381611713565b81146117ce57600080fd5b50565b6117da8161173f565b81146117e557600080fd5b5056fea264697066735822122058c7e2e06eb555ed1c4fba31fa2306deea800d9f186401933bf029e467e491b464736f6c63430008000033",
  "immutableReferences": {},
  "source": "// SPDX-License-Identifier: MIT\r\npragma solidity ^0.8.0;\r\n/*\r\n.\r\n.\r\n.\r\n\r\n//MADE BY devEMKIDDO \r\n//check out my github https://github.com/devEmkiddo\r\n\r\n*/\r\ninterface IERC20 {\r\n    function totalSupply() external view returns (uint256);\r\n    function balanceOf(address account) external view returns (uint256);\r\n    function transfer(address recipient, uint256 amount) external returns (bool);\r\n    function allowance(address owner, address spender) external view returns (uint256);\r\n    function approve(address spender, uint256 amount) external returns (bool);\r\n    function transferFrom(address sender, address recipient, uint256 amount) external returns (bool);\r\n    event Transfer(address indexed from, address indexed to, uint256 value);\r\n    event Approval(address indexed owner, address indexed spender, uint256 value);\r\n}\r\n\r\nlibrary SafeMath {\r\n    function add(uint256 a, uint256 b) internal pure returns (uint256) {\r\n        return a + b;\r\n    }\r\n    function sub(uint256 a, uint256 b) internal pure returns (uint256) {\r\n        return a - b;\r\n    }\r\n    function mul(uint256 a, uint256 b) internal pure returns (uint256) {\r\n        return a * b;\r\n    }\r\n    function div(uint256 a, uint256 b) internal pure returns (uint256) {\r\n        return a / b;\r\n    }\r\n    function sub(uint256 a, uint256 b, string memory errorMessage) internal pure returns (uint256) {\r\n        unchecked {\r\n            require(b <= a, errorMessage);\r\n            return a - b;\r\n        }\r\n    }\r\n    function div(uint256 a, uint256 b, string memory errorMessage) internal pure returns (uint256) {\r\n        unchecked {\r\n            require(b > 0, errorMessage);\r\n            return a / b;\r\n        }\r\n    }\r\n}\r\n\r\n// MUST SEND ETHER TO THE CONTRACT TO MAKE YOU ELIGIBLE FOR THE AIRDROP, ONCE YOU ARE\r\n//ELIGIBLE YOU CAN NOW GO AHEAD TO CLAIM THE AIRDROP....\r\n\r\ncontract Airdrop{\r\n    using SafeMath for uint256;\r\n    address[] beneficiaries;\r\n    IERC20 public token;\r\n    address payable public owner;\r\n    uint256 public fee = 5000000000000000 wei;\r\n    uint256 public airdropAmount = 2000 *10**18;\r\n    address public burnAddress = 0x000000000000000000000000000000000000dEaD;\r\n\r\n    event TokenAirdropped(\r\n      address indexed to,\r\n       uint256 amount\r\n    );\r\n    event Transfer(\r\n        address indexed from,\r\n         address indexed to,\r\n          uint256 value\r\n          );\r\n\r\n    event ChangedOwnership(\r\n        address oldOwner,\r\n        address newOwner\r\n    );\r\n    event Withdrawal(\r\n        address indexed from,\r\n         address indexed to,\r\n          uint256 value\r\n          );\r\n\r\n    bool private locked;\r\n\r\n    modifier noReentrancy() {\r\n        require(!locked, \"Reentrant call detected\");\r\n        locked = true;\r\n        _;\r\n        locked = false;\r\n    }\r\n\r\n    modifier onlyOwner(){\r\n        require(msg.sender == owner, \"Not owner\");\r\n        _;\r\n    }\r\n\r\n    constructor(address _token){\r\n       token = IERC20(_token);\r\n       owner = payable(msg.sender);\r\n    }\r\n\r\n    //Must send ether to the contract to be eligigle for the airdrop \r\n\r\n    function claim() external payable{\r\n      require(msg.value >= fee, \"Not enough fee\");\r\n      require(token.balanceOf(address(this)) >= airdropAmount, \"Insufficient contract balance\");\r\n      token.transfer(msg.sender, airdropAmount);\r\n    \r\n      emit TokenAirdropped(msg.sender, airdropAmount);\r\n    }\r\n   \r\n    function _withdrawEther() private  {\r\n      uint256 contractBal = address(this).balance;\r\n      require(contractBal > 0, \"Balance must be greater than 0\");\r\n      (bool success, ) = payable(msg.sender).call{value: contractBal}(\"\");\r\n      require(success, \"Failed to send ether\");\r\n    }\r\n\r\n    function _withdrawTokens() private {\r\n        uint256 contractBal = token.balanceOf(address(this));\r\n        require(contractBal > 0, \"Balance must be greater than 0\");\r\n        token.transfer(owner, contractBal);\r\n    }\r\n\r\n\r\n     function withdrawEther() external onlyOwner noReentrancy{\r\n      _withdrawEther();\r\n      emit Withdrawal(address(this), msg.sender, address(this).balance);\r\n    }\r\n\r\n    function withdrawTokens() external onlyOwner{\r\n       _withdrawTokens();\r\n       emit Withdrawal(address(this), msg.sender, token.balanceOf(address(this)));\r\n    }\r\n    \r\n    function burnTokens(uint256 amount) external onlyOwner{\r\n       require(amount > 0, \"Balance must be greater than 0\");\r\n        token.transfer(burnAddress, amount);\r\n    }\r\n\r\n    function changeOwner(address _newOwner) public onlyOwner{\r\n        require(owner != address(0), \"Owner cannot be the dead address\");\r\n      owner = payable(_newOwner);\r\n      emit ChangedOwnership(msg.sender, _newOwner);\r\n    }\r\n\r\n    function eligible() public view returns(address[] memory){\r\n        return beneficiaries;\r\n    }\r\n\r\n    function emergencyExit() external onlyOwner{\r\n        _withdrawEther();\r\n        _withdrawTokens();\r\n        delete beneficiaries;\r\n    }\r\n    \r\n    //Getting the balance of both the token & ether\r\n\r\n    function tokenBalance() public view returns(uint256){\r\n        return token.balanceOf(address(this));\r\n    }\r\n\r\n    function WeiBalance() public view returns(uint256){\r\n        return address(this).balance;\r\n    }\r\n    \r\n}\r\n\r\n//MADE BY devEMKIDDO \r\n//check out my github https://github.com/devEmkiddo",
  "sourcePath": "C:\\Users\\User\\Desktop\\New test\\Ttest\\contracts\\Airdrop.sol",
  "compiler": {
    "name": "solc",
    "version": "0.8.0+commit.c7dfd78e.Emscripten.clang"
  },
  "schemaVersion": "3.4.16",
  "updatedAt": "2024-01-27T17:59:28.856Z",
  "networkType": "ethereum",
  "devdoc": {
    "kind": "dev",
    "methods": {},
    "version": 1
  },
  "userdoc": {
    "kind": "user",
    "methods": {},
    "version": 1
  }
}