{
  "contractName": "Token",
  "abi": [
    {
      "inputs": [],
      "stateMutability": "nonpayable",
      "type": "constructor"
    },
    {
      "anonymous": false,
      "inputs": [
        {
          "indexed": true,
          "internalType": "address",
          "name": "_ower",
          "type": "address"
        },
        {
          "indexed": true,
          "internalType": "address",
          "name": "_spender",
          "type": "address"
        },
        {
          "indexed": false,
          "internalType": "uint256",
          "name": "_value",
          "type": "uint256"
        }
      ],
      "name": "Approval",
      "type": "event"
    },
    {
      "anonymous": false,
      "inputs": [
        {
          "indexed": true,
          "internalType": "address",
          "name": "_from",
          "type": "address"
        },
        {
          "indexed": true,
          "internalType": "address",
          "name": "_to",
          "type": "address"
        },
        {
          "indexed": false,
          "internalType": "uint256",
          "name": "_value",
          "type": "uint256"
        }
      ],
      "name": "Transfer",
      "type": "event"
    },
    {
      "inputs": [
        {
          "internalType": "address",
          "name": "",
          "type": "address"
        }
      ],
      "name": "balanceOf",
      "outputs": [
        {
          "internalType": "uint256",
          "name": "",
          "type": "uint256"
        }
      ],
      "stateMutability": "view",
      "type": "function",
      "constant": true
    },
    {
      "inputs": [],
      "name": "decimals",
      "outputs": [
        {
          "internalType": "uint8",
          "name": "",
          "type": "uint8"
        }
      ],
      "stateMutability": "view",
      "type": "function",
      "constant": true
    },
    {
      "inputs": [],
      "name": "name",
      "outputs": [
        {
          "internalType": "string",
          "name": "",
          "type": "string"
        }
      ],
      "stateMutability": "view",
      "type": "function",
      "constant": true
    },
    {
      "inputs": [],
      "name": "symbol",
      "outputs": [
        {
          "internalType": "string",
          "name": "",
          "type": "string"
        }
      ],
      "stateMutability": "view",
      "type": "function",
      "constant": true
    },
    {
      "inputs": [],
      "name": "totalSupply",
      "outputs": [
        {
          "internalType": "uint256",
          "name": "",
          "type": "uint256"
        }
      ],
      "stateMutability": "view",
      "type": "function",
      "constant": true
    },
    {
      "inputs": [
        {
          "internalType": "address",
          "name": "to",
          "type": "address"
        },
        {
          "internalType": "uint256",
          "name": "amount",
          "type": "uint256"
        }
      ],
      "name": "transfer",
      "outputs": [
        {
          "internalType": "bool",
          "name": "success",
          "type": "bool"
        }
      ],
      "stateMutability": "nonpayable",
      "type": "function"
    },
    {
      "inputs": [
        {
          "internalType": "address",
          "name": "from",
          "type": "address"
        },
        {
          "internalType": "address",
          "name": "to",
          "type": "address"
        },
        {
          "internalType": "uint256",
          "name": "amount",
          "type": "uint256"
        }
      ],
      "name": "transferFrom",
      "outputs": [
        {
          "internalType": "bool",
          "name": "success",
          "type": "bool"
        }
      ],
      "stateMutability": "nonpayable",
      "type": "function"
    },
    {
      "inputs": [
        {
          "internalType": "address",
          "name": "spender",
          "type": "address"
        },
        {
          "internalType": "uint256",
          "name": "amount",
          "type": "uint256"
        }
      ],
      "name": "approve",
      "outputs": [
        {
          "internalType": "bool",
          "name": "success",
          "type": "bool"
        }
      ],
      "stateMutability": "nonpayable",
      "type": "function"
    }
  ],
  "bytecode": "0x60806040526040518060400160405280600581526020017f544f4b454e000000000000000000000000000000000000000000000000000000815250600090805190602001906200005192919062000147565b506040518060400160405280600581526020017f544f4b454e000000000000000000000000000000000000000000000000000000815250600190805190602001906200009f92919062000147565b506012600260006101000a81548160ff021916908360ff160217905550600260009054906101000a900460ff16600a620000da919062000252565b62989680620000ea91906200038f565b600355348015620000fa57600080fd5b50600354600460003373ffffffffffffffffffffffffffffffffffffffff1673ffffffffffffffffffffffffffffffffffffffff16815260200190815260200160002081905550620004a8565b828054620001559062000407565b90600052602060002090601f016020900481019282620001795760008555620001c5565b82601f106200019457805160ff1916838001178555620001c5565b82800160010185558215620001c5579182015b82811115620001c4578251825591602001919060010190620001a7565b5b509050620001d49190620001d8565b5090565b5b80821115620001f3576000816000905550600101620001d9565b5090565b6000808291508390505b600185111562000249578086048111156200022157620002206200043d565b5b6001851615620002315780820291505b808102905062000241856200049b565b945062000201565b94509492505050565b60006200025f82620003f0565b91506200026c83620003fa565b92506200029b7fffffffffffffffffffffffffffffffffffffffffffffffffffffffffffffffff8484620002a3565b905092915050565b600082620002b5576001905062000388565b81620002c5576000905062000388565b8160018114620002de5760028114620002e9576200031f565b600191505062000388565b60ff841115620002fe57620002fd6200043d565b5b8360020a9150848211156200031857620003176200043d565b5b5062000388565b5060208310610133831016604e8410600b8410161715620003595782820a9050838111156200035357620003526200043d565b5b62000388565b620003688484846001620001f7565b925090508184048111156200038257620003816200043d565b5b81810290505b9392505050565b60006200039c82620003f0565b9150620003a983620003f0565b9250817fffffffffffffffffffffffffffffffffffffffffffffffffffffffffffffffff0483118215151615620003e557620003e46200043d565b5b828202905092915050565b6000819050919050565b600060ff82169050919050565b600060028204905060018216806200042057607f821691505b602082108114156200043757620004366200046c565b5b50919050565b7f4e487b7100000000000000000000000000000000000000000000000000000000600052601160045260246000fd5b7f4e487b7100000000000000000000000000000000000000000000000000000000600052602260045260246000fd5b60008160011c9050919050565b610d3f80620004b86000396000f3fe608060405234801561001057600080fd5b50600436106100885760003560e01c8063313ce5671161005b578063313ce5671461012957806370a082311461014757806395d89b4114610177578063a9059cbb1461019557610088565b806306fdde031461008d578063095ea7b3146100ab57806318160ddd146100db57806323b872dd146100f9575b600080fd5b6100956101c5565b6040516100a29190610a74565b60405180910390f35b6100c560048036038101906100c09190610937565b610253565b6040516100d29190610a59565b60405180910390f35b6100e3610345565b6040516100f09190610ad6565b60405180910390f35b610113600480360381019061010e91906108e8565b61034b565b6040516101209190610a59565b60405180910390f35b61013161063d565b60405161013e9190610af1565b60405180910390f35b610161600480360381019061015c91906108bf565b610650565b60405161016e9190610ad6565b60405180910390f35b61017f610668565b60405161018c9190610a74565b60405180910390f35b6101af60048036038101906101aa9190610937565b6106f6565b6040516101bc9190610a59565b60405180910390f35b600080546101d290610c3a565b80601f01602080910402602001604051908101604052809291908181526020018280546101fe90610c3a565b801561024b5780601f106102205761010080835404028352916020019161024b565b820191906000526020600020905b81548152906001019060200180831161022e57829003601f168201915b505050505081565b600081600560003373ffffffffffffffffffffffffffffffffffffffff1673ffffffffffffffffffffffffffffffffffffffff16815260200190815260200160002060008573ffffffffffffffffffffffffffffffffffffffff1673ffffffffffffffffffffffffffffffffffffffff168152602001908152602001600020819055508273ffffffffffffffffffffffffffffffffffffffff163373ffffffffffffffffffffffffffffffffffffffff167f8c5be1e5ebec7d5bd14f71427d1e84f3dd0314c0f7b2291e5b200ac8c7c3b925846040516103339190610ad6565b60405180910390a36001905092915050565b60035481565b600081600460008673ffffffffffffffffffffffffffffffffffffffff1673ffffffffffffffffffffffffffffffffffffffff1681526020019081526020016000205410156103cf576040517f08c379a00000000000000000000000000000000000000000000000000000000081526004016103c690610a96565b60405180910390fd5b81600560008673ffffffffffffffffffffffffffffffffffffffff1673ffffffffffffffffffffffffffffffffffffffff16815260200190815260200160002060008573ffffffffffffffffffffffffffffffffffffffff1673ffffffffffffffffffffffffffffffffffffffff16815260200190815260200160002054101561048e576040517f08c379a000000000000000000000000000000000000000000000000000000000815260040161048590610ab6565b60405180910390fd5b81600460008673ffffffffffffffffffffffffffffffffffffffff1673ffffffffffffffffffffffffffffffffffffffff16815260200190815260200160002060008282546104dd9190610b7e565b9250508190555081600460008573ffffffffffffffffffffffffffffffffffffffff1673ffffffffffffffffffffffffffffffffffffffff16815260200190815260200160002060008282546105339190610b28565b9250508190555081600560008673ffffffffffffffffffffffffffffffffffffffff1673ffffffffffffffffffffffffffffffffffffffff16815260200190815260200160002060008573ffffffffffffffffffffffffffffffffffffffff1673ffffffffffffffffffffffffffffffffffffffff16815260200190815260200160002060008282546105c69190610b7e565b925050819055508273ffffffffffffffffffffffffffffffffffffffff168473ffffffffffffffffffffffffffffffffffffffff167fddf252ad1be2c89b69c2b068fc378daa952ba7f163c4a11628f55a4df523b3ef8460405161062a9190610ad6565b60405180910390a3600190509392505050565b600260009054906101000a900460ff1681565b60046020528060005260406000206000915090505481565b6001805461067590610c3a565b80601f01602080910402602001604051908101604052809291908181526020018280546106a190610c3a565b80156106ee5780601f106106c3576101008083540402835291602001916106ee565b820191906000526020600020905b8154815290600101906020018083116106d157829003601f168201915b505050505081565b600081600460003373ffffffffffffffffffffffffffffffffffffffff1673ffffffffffffffffffffffffffffffffffffffff16815260200190815260200160002054101561077a576040517f08c379a000000000000000000000000000000000000000000000000000000000815260040161077190610a96565b60405180910390fd5b81600460003373ffffffffffffffffffffffffffffffffffffffff1673ffffffffffffffffffffffffffffffffffffffff16815260200190815260200160002060008282546107c99190610b7e565b9250508190555081600460008573ffffffffffffffffffffffffffffffffffffffff1673ffffffffffffffffffffffffffffffffffffffff168152602001908152602001600020600082825461081f9190610b28565b925050819055508273ffffffffffffffffffffffffffffffffffffffff163373ffffffffffffffffffffffffffffffffffffffff167fddf252ad1be2c89b69c2b068fc378daa952ba7f163c4a11628f55a4df523b3ef846040516108839190610ad6565b60405180910390a36001905092915050565b6000813590506108a481610cdb565b92915050565b6000813590506108b981610cf2565b92915050565b6000602082840312156108d157600080fd5b60006108df84828501610895565b91505092915050565b6000806000606084860312156108fd57600080fd5b600061090b86828701610895565b935050602061091c86828701610895565b925050604061092d868287016108aa565b9150509250925092565b6000806040838503121561094a57600080fd5b600061095885828601610895565b9250506020610969858286016108aa565b9150509250929050565b61097c81610bc4565b82525050565b600061098d82610b0c565b6109978185610b17565b93506109a7818560208601610c07565b6109b081610cca565b840191505092915050565b60006109c8601283610b17565b91507f4e6f7420656e6f7567682062616c616e636500000000000000000000000000006000830152602082019050919050565b6000610a08601583610b17565b91507f4e6f7420656e6f75676820616c6c6f77616e63657300000000000000000000006000830152602082019050919050565b610a4481610bf0565b82525050565b610a5381610bfa565b82525050565b6000602082019050610a6e6000830184610973565b92915050565b60006020820190508181036000830152610a8e8184610982565b905092915050565b60006020820190508181036000830152610aaf816109bb565b9050919050565b60006020820190508181036000830152610acf816109fb565b9050919050565b6000602082019050610aeb6000830184610a3b565b92915050565b6000602082019050610b066000830184610a4a565b92915050565b600081519050919050565b600082825260208201905092915050565b6000610b3382610bf0565b9150610b3e83610bf0565b9250827fffffffffffffffffffffffffffffffffffffffffffffffffffffffffffffffff03821115610b7357610b72610c6c565b5b828201905092915050565b6000610b8982610bf0565b9150610b9483610bf0565b925082821015610ba757610ba6610c6c565b5b828203905092915050565b6000610bbd82610bd0565b9050919050565b60008115159050919050565b600073ffffffffffffffffffffffffffffffffffffffff82169050919050565b6000819050919050565b600060ff82169050919050565b60005b83811015610c25578082015181840152602081019050610c0a565b83811115610c34576000848401525b50505050565b60006002820490506001821680610c5257607f821691505b60208210811415610c6657610c65610c9b565b5b50919050565b7f4e487b7100000000000000000000000000000000000000000000000000000000600052601160045260246000fd5b7f4e487b7100000000000000000000000000000000000000000000000000000000600052602260045260246000fd5b6000601f19601f8301169050919050565b610ce481610bb2565b8114610cef57600080fd5b50565b610cfb81610bf0565b8114610d0657600080fd5b5056fea26469706673582212204b06f579558d50e38e49e1bca937566497de9175e35f6904562cbc2b1d15bfef64736f6c63430008000033",
  "immutableReferences": {},
  "source": "// SPDX-License-Identifier: MIT\r\n\r\npragma solidity 0.8.0;\r\n\r\ncontract Token{\r\n    string public name = unicode\"TOKEN\";\r\n    string public symbol = unicode\"TOKEN\";\r\n    uint8 public decimals = 18;\r\n    uint256 public totalSupply = 10000000 * 10**decimals;\r\n\r\n    event Transfer(\r\n        address indexed _from,\r\n        address indexed _to,\r\n        uint256 _value\r\n    );\r\n\r\n    event Approval(\r\n        address indexed _ower,\r\n        address indexed _spender,\r\n        uint256 _value\r\n    );\r\n\r\n    mapping(address => uint256) public balanceOf;\r\n    mapping(address => mapping(address => uint256)) private allowance;\r\n\r\n    constructor ()  {\r\n        balanceOf[msg.sender] = totalSupply;\r\n    }\r\n\r\n     function transfer(address to, uint256 amount) public returns(bool success){\r\n        require(balanceOf[msg.sender] >= amount, \"Not enough balance\");\r\n        balanceOf[msg.sender] -= amount;\r\n        balanceOf[to] += amount;\r\n        emit Transfer(msg.sender, to, amount);\r\n        return true;\r\n    }\r\n   \r\n   \r\n    function transferFrom(address from, address to, uint256 amount) public returns(bool success){\r\n        require(balanceOf[from] >= amount, \"Not enough balance\");\r\n        require(allowance[from][to] >= amount, \"Not enough allowances\");\r\n        balanceOf[from] -= amount;\r\n        balanceOf[to] += amount;\r\n        allowance[from][to] -= amount;\r\n        emit Transfer(from, to, amount);\r\n        return true;\r\n    }\r\n\r\n    function approve(address spender, uint256 amount) public returns(bool success){\r\n        allowance[msg.sender][spender] = amount;\r\n        emit Approval(msg.sender, spender, amount);\r\n        return true;\r\n    }\r\n}",
  "sourcePath": "C:\\Users\\User\\Desktop\\New test\\Ttest\\contracts\\Token.sol",
  "compiler": {
    "name": "solc",
    "version": "0.8.0+commit.c7dfd78e.Emscripten.clang"
  },
  "schemaVersion": "3.4.16",
  "updatedAt": "2024-01-27T17:59:28.867Z",
  "networkType": "ethereum",
  "devdoc": {
    "kind": "dev",
    "methods": {},
    "version": 1
  },
  "userdoc": {
    "kind": "user",
    "methods": {},
    "version": 1
  }
}